{"contracts/DownloadAgreement.sol":{"DownloadAgreement":{"abi":[{"anonymous":false,"inputs":[{"indexed":false,"internalType":"address","name":"downloader","type":"address"},{"indexed":false,"internalType":"uint256","name":"originalProjectId","type":"uint256"},{"indexed":false,"internalType":"string","name":"licenseType","type":"string"},{"indexed":false,"internalType":"uint256","name":"timestamp","type":"uint256"}],"name":"LicenseAccepted","type":"event"},{"inputs":[{"internalType":"uint256","name":"originalProjectId","type":"uint256"},{"internalType":"string","name":"licenseType","type":"string"}],"name":"acceptLicense","outputs":[],"stateMutability":"nonpayable","type":"function"},{"inputs":[{"internalType":"uint256","name":"projectId","type":"uint256"}],"name":"getDownloadsByProject","outputs":[{"components":[{"internalType":"address","name":"downloader","type":"address"},{"internalType":"uint256","name":"originalProjectId","type":"uint256"},{"internalType":"string","name":"licenseType","type":"string"},{"internalType":"uint256","name":"timestamp","type":"uint256"}],"internalType":"struct DownloadAgreement.LicenseAgreement[]","name":"","type":"tuple[]"}],"stateMutability":"view","type":"function"},{"inputs":[{"internalType":"uint256","name":"","type":"uint256"},{"internalType":"uint256","name":"","type":"uint256"}],"name":"licenseRecords","outputs":[{"internalType":"address","name":"downloader","type":"address"},{"internalType":"uint256","name":"originalProjectId","type":"uint256"},{"internalType":"string","name":"licenseType","type":"string"},{"internalType":"uint256","name":"timestamp","type":"uint256"}],"stateMutability":"view","type":"function"}],"evm":{"bytecode":{"linkReferences":{},"object":"608060405234801561001057600080fd5b50610c84806100206000396000f3fe608060405234801561001057600080fd5b50600436106100415760003560e01c80633e28bb5d146100465780635079b61a1461007957806353e538f114610095575b600080fd5b610060600480360381019061005b9190610497565b6100c5565b60405161007094939291906105b7565b60405180910390f35b610093600480360381019061008e9190610738565b6101ba565b005b6100af60048036038101906100aa9190610794565b6102e0565b6040516100bc919061094e565b60405180910390f35b600060205281600052604060002081815481106100e157600080fd5b9060005260206000209060040201600091509150508060000160009054906101000a900473ffffffffffffffffffffffffffffffffffffffff16908060010154908060020180546101319061099f565b80601f016020809104026020016040519081016040528092919081815260200182805461015d9061099f565b80156101aa5780601f1061017f576101008083540402835291602001916101aa565b820191906000526020600020905b81548152906001019060200180831161018d57829003601f168201915b5050505050908060030154905084565b60008083815260200190815260200160002060405180608001604052803373ffffffffffffffffffffffffffffffffffffffff16815260200184815260200183815260200142815250908060018154018082558091505060019003906000526020600020906004020160009091909190915060008201518160000160006101000a81548173ffffffffffffffffffffffffffffffffffffffff021916908373ffffffffffffffffffffffffffffffffffffffff1602179055506020820151816001015560408201518160020190816102929190610b7c565b506060820151816003015550507fb31ebd9b6c09f3b0b779e965936f97c32576bb4e78b66fa189e0d0ba4ff046cf338383426040516102d494939291906105b7565b60405180910390a15050565b6060600080838152602001908152602001600020805480602002602001604051908101604052809291908181526020016000905b8282101561044257838290600052602060002090600402016040518060800160405290816000820160009054906101000a900473ffffffffffffffffffffffffffffffffffffffff1673ffffffffffffffffffffffffffffffffffffffff1673ffffffffffffffffffffffffffffffffffffffff168152602001600182015481526020016002820180546103a79061099f565b80601f01602080910402602001604051908101604052809291908181526020018280546103d39061099f565b80156104205780601f106103f557610100808354040283529160200191610420565b820191906000526020600020905b81548152906001019060200180831161040357829003601f168201915b5050505050815260200160038201548152505081526020019060010190610314565b505050509050919050565b6000604051905090565b600080fd5b600080fd5b6000819050919050565b61047481610461565b811461047f57600080fd5b50565b6000813590506104918161046b565b92915050565b600080604083850312156104ae576104ad610457565b5b60006104bc85828601610482565b92505060206104cd85828601610482565b9150509250929050565b600073ffffffffffffffffffffffffffffffffffffffff82169050919050565b6000610502826104d7565b9050919050565b610512816104f7565b82525050565b61052181610461565b82525050565b600081519050919050565b600082825260208201905092915050565b60005b83811015610561578082015181840152602081019050610546565b60008484015250505050565b6000601f19601f8301169050919050565b600061058982610527565b6105938185610532565b93506105a3818560208601610543565b6105ac8161056d565b840191505092915050565b60006080820190506105cc6000830187610509565b6105d96020830186610518565b81810360408301526105eb818561057e565b90506105fa6060830184610518565b95945050505050565b600080fd5b600080fd5b7f4e487b7100000000000000000000000000000000000000000000000000000000600052604160045260246000fd5b6106458261056d565b810181811067ffffffffffffffff821117156106645761066361060d565b5b80604052505050565b600061067761044d565b9050610683828261063c565b919050565b600067ffffffffffffffff8211156106a3576106a261060d565b5b6106ac8261056d565b9050602081019050919050565b82818337600083830152505050565b60006106db6106d684610688565b61066d565b9050828152602081018484840111156106f7576106f6610608565b5b6107028482856106b9565b509392505050565b600082601f83011261071f5761071e610603565b5b813561072f8482602086016106c8565b91505092915050565b6000806040838503121561074f5761074e610457565b5b600061075d85828601610482565b925050602083013567ffffffffffffffff81111561077e5761077d61045c565b5b61078a8582860161070a565b9150509250929050565b6000602082840312156107aa576107a9610457565b5b60006107b884828501610482565b91505092915050565b600081519050919050565b600082825260208201905092915050565b6000819050602082019050919050565b6107f6816104f7565b82525050565b61080581610461565b82525050565b600082825260208201905092915050565b600061082782610527565b610831818561080b565b9350610841818560208601610543565b61084a8161056d565b840191505092915050565b600060808301600083015161086d60008601826107ed565b50602083015161088060208601826107fc565b5060408301518482036040860152610898828261081c565b91505060608301516108ad60608601826107fc565b508091505092915050565b60006108c48383610855565b905092915050565b6000602082019050919050565b60006108e4826107c1565b6108ee81856107cc565b935083602082028501610900856107dd565b8060005b8581101561093c578484038952815161091d85826108b8565b9450610928836108cc565b925060208a01995050600181019050610904565b50829750879550505050505092915050565b6000602082019050818103600083015261096881846108d9565b905092915050565b7f4e487b7100000000000000000000000000000000000000000000000000000000600052602260045260246000fd5b600060028204905060018216806109b757607f821691505b6020821081036109ca576109c9610970565b5b50919050565b60008190508160005260206000209050919050565b60006020601f8301049050919050565b600082821b905092915050565b600060088302610a327fffffffffffffffffffffffffffffffffffffffffffffffffffffffffffffffff826109f5565b610a3c86836109f5565b95508019841693508086168417925050509392505050565b6000819050919050565b6000610a79610a74610a6f84610461565b610a54565b610461565b9050919050565b6000819050919050565b610a9383610a5e565b610aa7610a9f82610a80565b848454610a02565b825550505050565b600090565b610abc610aaf565b610ac7818484610a8a565b505050565b5b81811015610aeb57610ae0600082610ab4565b600181019050610acd565b5050565b601f821115610b3057610b01816109d0565b610b0a846109e5565b81016020851015610b19578190505b610b2d610b25856109e5565b830182610acc565b50505b505050565b600082821c905092915050565b6000610b5360001984600802610b35565b1980831691505092915050565b6000610b6c8383610b42565b9150826002028217905092915050565b610b8582610527565b67ffffffffffffffff811115610b9e57610b9d61060d565b5b610ba8825461099f565b610bb3828285610aef565b600060209050601f831160018114610be65760008415610bd4578287015190505b610bde8582610b60565b865550610c46565b601f198416610bf4866109d0565b60005b82811015610c1c57848901518255600182019150602085019450602081019050610bf7565b86831015610c395784890151610c35601f891682610b42565b8355505b6001600288020188555050505b50505050505056fea2646970667358221220f54972a7447d700486e48f6e90b5c137e17f428e3bf4f0963997cb3d9e11416664736f6c63430008130033","opcodes":"PUSH1 0x80 PUSH1 0x40 MSTORE CALLVALUE DUP1 ISZERO PUSH2 0x10 JUMPI PUSH1 0x0 DUP1 REVERT JUMPDEST POP PUSH2 0xC84 DUP1 PUSH2 0x20 PUSH1 0x0 CODECOPY PUSH1 0x0 RETURN INVALID PUSH1 0x80 PUSH1 0x40 MSTORE CALLVALUE DUP1 ISZERO PUSH2 0x10 JUMPI PUSH1 0x0 DUP1 REVERT JUMPDEST POP PUSH1 0x4 CALLDATASIZE LT PUSH2 0x41 JUMPI PUSH1 0x0 CALLDATALOAD PUSH1 0xE0 SHR DUP1 PUSH4 0x3E28BB5D EQ PUSH2 0x46 JUMPI DUP1 PUSH4 0x5079B61A EQ PUSH2 0x79 JUMPI DUP1 PUSH4 0x53E538F1 EQ PUSH2 0x95 JUMPI JUMPDEST PUSH1 0x0 DUP1 REVERT JUMPDEST PUSH2 0x60 PUSH1 0x4 DUP1 CALLDATASIZE SUB DUP2 ADD SWAP1 PUSH2 0x5B SWAP2 SWAP1 PUSH2 0x497 JUMP JUMPDEST PUSH2 0xC5 JUMP JUMPDEST PUSH1 0x40 MLOAD PUSH2 0x70 SWAP5 SWAP4 SWAP3 SWAP2 SWAP1 PUSH2 0x5B7 JUMP JUMPDEST PUSH1 0x40 MLOAD DUP1 SWAP2 SUB SWAP1 RETURN JUMPDEST PUSH2 0x93 PUSH1 0x4 DUP1 CALLDATASIZE SUB DUP2 ADD SWAP1 PUSH2 0x8E SWAP2 SWAP1 PUSH2 0x738 JUMP JUMPDEST PUSH2 0x1BA JUMP JUMPDEST STOP JUMPDEST PUSH2 0xAF PUSH1 0x4 DUP1 CALLDATASIZE SUB DUP2 ADD SWAP1 PUSH2 0xAA SWAP2 SWAP1 PUSH2 0x794 JUMP JUMPDEST PUSH2 0x2E0 JUMP JUMPDEST PUSH1 0x40 MLOAD PUSH2 0xBC SWAP2 SWAP1 PUSH2 0x94E JUMP JUMPDEST PUSH1 0x40 MLOAD DUP1 SWAP2 SUB SWAP1 RETURN JUMPDEST PUSH1 0x0 PUSH1 0x20 MSTORE DUP2 PUSH1 0x0 MSTORE PUSH1 0x40 PUSH1 0x0 KECCAK256 DUP2 DUP2 SLOAD DUP2 LT PUSH2 0xE1 JUMPI PUSH1 0x0 DUP1 REVERT JUMPDEST SWAP1 PUSH1 0x0 MSTORE PUSH1 0x20 PUSH1 0x0 KECCAK256 SWAP1 PUSH1 0x4 MUL ADD PUSH1 0x0 SWAP2 POP SWAP2 POP POP DUP1 PUSH1 0x0 ADD PUSH1 0x0 SWAP1 SLOAD SWAP1 PUSH2 0x100 EXP SWAP1 DIV PUSH20 0xFFFFFFFFFFFFFFFFFFFFFFFFFFFFFFFFFFFFFFFF AND SWAP1 DUP1 PUSH1 0x1 ADD SLOAD SWAP1 DUP1 PUSH1 0x2 ADD DUP1 SLOAD PUSH2 0x131 SWAP1 PUSH2 0x99F JUMP JUMPDEST DUP1 PUSH1 0x1F ADD PUSH1 0x20 DUP1 SWAP2 DIV MUL PUSH1 0x20 ADD PUSH1 0x40 MLOAD SWAP1 DUP2 ADD PUSH1 0x40 MSTORE DUP1 SWAP3 SWAP2 SWAP1 DUP2 DUP2 MSTORE PUSH1 0x20 ADD DUP3 DUP1 SLOAD PUSH2 0x15D SWAP1 PUSH2 0x99F JUMP JUMPDEST DUP1 ISZERO PUSH2 0x1AA JUMPI DUP1 PUSH1 0x1F LT PUSH2 0x17F JUMPI PUSH2 0x100 DUP1 DUP4 SLOAD DIV MUL DUP4 MSTORE SWAP2 PUSH1 0x20 ADD SWAP2 PUSH2 0x1AA JUMP JUMPDEST DUP3 ADD SWAP2 SWAP1 PUSH1 0x0 MSTORE PUSH1 0x20 PUSH1 0x0 KECCAK256 SWAP1 JUMPDEST DUP2 SLOAD DUP2 MSTORE SWAP1 PUSH1 0x1 ADD SWAP1 PUSH1 0x20 ADD DUP1 DUP4 GT PUSH2 0x18D JUMPI DUP3 SWAP1 SUB PUSH1 0x1F AND DUP3 ADD SWAP2 JUMPDEST POP POP POP POP POP SWAP1 DUP1 PUSH1 0x3 ADD SLOAD SWAP1 POP DUP5 JUMP JUMPDEST PUSH1 0x0 DUP1 DUP4 DUP2 MSTORE PUSH1 0x20 ADD SWAP1 DUP2 MSTORE PUSH1 0x20 ADD PUSH1 0x0 KECCAK256 PUSH1 0x40 MLOAD DUP1 PUSH1 0x80 ADD PUSH1 0x40 MSTORE DUP1 CALLER PUSH20 0xFFFFFFFFFFFFFFFFFFFFFFFFFFFFFFFFFFFFFFFF AND DUP2 MSTORE PUSH1 0x20 ADD DUP5 DUP2 MSTORE PUSH1 0x20 ADD DUP4 DUP2 MSTORE PUSH1 0x20 ADD TIMESTAMP DUP2 MSTORE POP SWAP1 DUP1 PUSH1 0x1 DUP2 SLOAD ADD DUP1 DUP3 SSTORE DUP1 SWAP2 POP POP PUSH1 0x1 SWAP1 SUB SWAP1 PUSH1 0x0 MSTORE PUSH1 0x20 PUSH1 0x0 KECCAK256 SWAP1 PUSH1 0x4 MUL ADD PUSH1 0x0 SWAP1 SWAP2 SWAP1 SWAP2 SWAP1 SWAP2 POP PUSH1 0x0 DUP3 ADD MLOAD DUP2 PUSH1 0x0 ADD PUSH1 0x0 PUSH2 0x100 EXP DUP2 SLOAD DUP2 PUSH20 0xFFFFFFFFFFFFFFFFFFFFFFFFFFFFFFFFFFFFFFFF MUL NOT AND SWAP1 DUP4 PUSH20 0xFFFFFFFFFFFFFFFFFFFFFFFFFFFFFFFFFFFFFFFF AND MUL OR SWAP1 SSTORE POP PUSH1 0x20 DUP3 ADD MLOAD DUP2 PUSH1 0x1 ADD SSTORE PUSH1 0x40 DUP3 ADD MLOAD DUP2 PUSH1 0x2 ADD SWAP1 DUP2 PUSH2 0x292 SWAP2 SWAP1 PUSH2 0xB7C JUMP JUMPDEST POP PUSH1 0x60 DUP3 ADD MLOAD DUP2 PUSH1 0x3 ADD SSTORE POP POP PUSH32 0xB31EBD9B6C09F3B0B779E965936F97C32576BB4E78B66FA189E0D0BA4FF046CF CALLER DUP4 DUP4 TIMESTAMP PUSH1 0x40 MLOAD PUSH2 0x2D4 SWAP5 SWAP4 SWAP3 SWAP2 SWAP1 PUSH2 0x5B7 JUMP JUMPDEST PUSH1 0x40 MLOAD DUP1 SWAP2 SUB SWAP1 LOG1 POP POP JUMP JUMPDEST PUSH1 0x60 PUSH1 0x0 DUP1 DUP4 DUP2 MSTORE PUSH1 0x20 ADD SWAP1 DUP2 MSTORE PUSH1 0x20 ADD PUSH1 0x0 KECCAK256 DUP1 SLOAD DUP1 PUSH1 0x20 MUL PUSH1 0x20 ADD PUSH1 0x40 MLOAD SWAP1 DUP2 ADD PUSH1 0x40 MSTORE DUP1 SWAP3 SWAP2 SWAP1 DUP2 DUP2 MSTORE PUSH1 0x20 ADD PUSH1 0x0 SWAP1 JUMPDEST DUP3 DUP3 LT ISZERO PUSH2 0x442 JUMPI DUP4 DUP3 SWAP1 PUSH1 0x0 MSTORE PUSH1 0x20 PUSH1 0x0 KECCAK256 SWAP1 PUSH1 0x4 MUL ADD PUSH1 0x40 MLOAD DUP1 PUSH1 0x80 ADD PUSH1 0x40 MSTORE SWAP1 DUP2 PUSH1 0x0 DUP3 ADD PUSH1 0x0 SWAP1 SLOAD SWAP1 PUSH2 0x100 EXP SWAP1 DIV PUSH20 0xFFFFFFFFFFFFFFFFFFFFFFFFFFFFFFFFFFFFFFFF AND PUSH20 0xFFFFFFFFFFFFFFFFFFFFFFFFFFFFFFFFFFFFFFFF AND PUSH20 0xFFFFFFFFFFFFFFFFFFFFFFFFFFFFFFFFFFFFFFFF AND DUP2 MSTORE PUSH1 0x20 ADD PUSH1 0x1 DUP3 ADD SLOAD DUP2 MSTORE PUSH1 0x20 ADD PUSH1 0x2 DUP3 ADD DUP1 SLOAD PUSH2 0x3A7 SWAP1 PUSH2 0x99F JUMP JUMPDEST DUP1 PUSH1 0x1F ADD PUSH1 0x20 DUP1 SWAP2 DIV MUL PUSH1 0x20 ADD PUSH1 0x40 MLOAD SWAP1 DUP2 ADD PUSH1 0x40 MSTORE DUP1 SWAP3 SWAP2 SWAP1 DUP2 DUP2 MSTORE PUSH1 0x20 ADD DUP3 DUP1 SLOAD PUSH2 0x3D3 SWAP1 PUSH2 0x99F JUMP JUMPDEST DUP1 ISZERO PUSH2 0x420 JUMPI DUP1 PUSH1 0x1F LT PUSH2 0x3F5 JUMPI PUSH2 0x100 DUP1 DUP4 SLOAD DIV MUL DUP4 MSTORE SWAP2 PUSH1 0x20 ADD SWAP2 PUSH2 0x420 JUMP JUMPDEST DUP3 ADD SWAP2 SWAP1 PUSH1 0x0 MSTORE PUSH1 0x20 PUSH1 0x0 KECCAK256 SWAP1 JUMPDEST DUP2 SLOAD DUP2 MSTORE SWAP1 PUSH1 0x1 ADD SWAP1 PUSH1 0x20 ADD DUP1 DUP4 GT PUSH2 0x403 JUMPI DUP3 SWAP1 SUB PUSH1 0x1F AND DUP3 ADD SWAP2 JUMPDEST POP POP POP POP POP DUP2 MSTORE PUSH1 0x20 ADD PUSH1 0x3 DUP3 ADD SLOAD DUP2 MSTORE POP POP DUP2 MSTORE PUSH1 0x20 ADD SWAP1 PUSH1 0x1 ADD SWAP1 PUSH2 0x314 JUMP JUMPDEST POP POP POP POP SWAP1 POP SWAP2 SWAP1 POP JUMP JUMPDEST PUSH1 0x0 PUSH1 0x40 MLOAD SWAP1 POP SWAP1 JUMP JUMPDEST PUSH1 0x0 DUP1 REVERT JUMPDEST PUSH1 0x0 DUP1 REVERT JUMPDEST PUSH1 0x0 DUP2 SWAP1 POP SWAP2 SWAP1 POP JUMP JUMPDEST PUSH2 0x474 DUP2 PUSH2 0x461 JUMP JUMPDEST DUP2 EQ PUSH2 0x47F JUMPI PUSH1 0x0 DUP1 REVERT JUMPDEST POP JUMP JUMPDEST PUSH1 0x0 DUP2 CALLDATALOAD SWAP1 POP PUSH2 0x491 DUP2 PUSH2 0x46B JUMP JUMPDEST SWAP3 SWAP2 POP POP JUMP JUMPDEST PUSH1 0x0 DUP1 PUSH1 0x40 DUP4 DUP6 SUB SLT ISZERO PUSH2 0x4AE JUMPI PUSH2 0x4AD PUSH2 0x457 JUMP JUMPDEST JUMPDEST PUSH1 0x0 PUSH2 0x4BC DUP6 DUP3 DUP7 ADD PUSH2 0x482 JUMP JUMPDEST SWAP3 POP POP PUSH1 0x20 PUSH2 0x4CD DUP6 DUP3 DUP7 ADD PUSH2 0x482 JUMP JUMPDEST SWAP2 POP POP SWAP3 POP SWAP3 SWAP1 POP JUMP JUMPDEST PUSH1 0x0 PUSH20 0xFFFFFFFFFFFFFFFFFFFFFFFFFFFFFFFFFFFFFFFF DUP3 AND SWAP1 POP SWAP2 SWAP1 POP JUMP JUMPDEST PUSH1 0x0 PUSH2 0x502 DUP3 PUSH2 0x4D7 JUMP JUMPDEST SWAP1 POP SWAP2 SWAP1 POP JUMP JUMPDEST PUSH2 0x512 DUP2 PUSH2 0x4F7 JUMP JUMPDEST DUP3 MSTORE POP POP JUMP JUMPDEST PUSH2 0x521 DUP2 PUSH2 0x461 JUMP JUMPDEST DUP3 MSTORE POP POP JUMP JUMPDEST PUSH1 0x0 DUP2 MLOAD SWAP1 POP SWAP2 SWAP1 POP JUMP JUMPDEST PUSH1 0x0 DUP3 DUP3 MSTORE PUSH1 0x20 DUP3 ADD SWAP1 POP SWAP3 SWAP2 POP POP JUMP JUMPDEST PUSH1 0x0 JUMPDEST DUP4 DUP2 LT ISZERO PUSH2 0x561 JUMPI DUP1 DUP3 ADD MLOAD DUP2 DUP5 ADD MSTORE PUSH1 0x20 DUP2 ADD SWAP1 POP PUSH2 0x546 JUMP JUMPDEST PUSH1 0x0 DUP5 DUP5 ADD MSTORE POP POP POP POP JUMP JUMPDEST PUSH1 0x0 PUSH1 0x1F NOT PUSH1 0x1F DUP4 ADD AND SWAP1 POP SWAP2 SWAP1 POP JUMP JUMPDEST PUSH1 0x0 PUSH2 0x589 DUP3 PUSH2 0x527 JUMP JUMPDEST PUSH2 0x593 DUP2 DUP6 PUSH2 0x532 JUMP JUMPDEST SWAP4 POP PUSH2 0x5A3 DUP2 DUP6 PUSH1 0x20 DUP7 ADD PUSH2 0x543 JUMP JUMPDEST PUSH2 0x5AC DUP2 PUSH2 0x56D JUMP JUMPDEST DUP5 ADD SWAP2 POP POP SWAP3 SWAP2 POP POP JUMP JUMPDEST PUSH1 0x0 PUSH1 0x80 DUP3 ADD SWAP1 POP PUSH2 0x5CC PUSH1 0x0 DUP4 ADD DUP8 PUSH2 0x509 JUMP JUMPDEST PUSH2 0x5D9 PUSH1 0x20 DUP4 ADD DUP7 PUSH2 0x518 JUMP JUMPDEST DUP2 DUP2 SUB PUSH1 0x40 DUP4 ADD MSTORE PUSH2 0x5EB DUP2 DUP6 PUSH2 0x57E JUMP JUMPDEST SWAP1 POP PUSH2 0x5FA PUSH1 0x60 DUP4 ADD DUP5 PUSH2 0x518 JUMP JUMPDEST SWAP6 SWAP5 POP POP POP POP POP JUMP JUMPDEST PUSH1 0x0 DUP1 REVERT JUMPDEST PUSH1 0x0 DUP1 REVERT JUMPDEST PUSH32 0x4E487B7100000000000000000000000000000000000000000000000000000000 PUSH1 0x0 MSTORE PUSH1 0x41 PUSH1 0x4 MSTORE PUSH1 0x24 PUSH1 0x0 REVERT JUMPDEST PUSH2 0x645 DUP3 PUSH2 0x56D JUMP JUMPDEST DUP2 ADD DUP2 DUP2 LT PUSH8 0xFFFFFFFFFFFFFFFF DUP3 GT OR ISZERO PUSH2 0x664 JUMPI PUSH2 0x663 PUSH2 0x60D JUMP JUMPDEST JUMPDEST DUP1 PUSH1 0x40 MSTORE POP POP POP JUMP JUMPDEST PUSH1 0x0 PUSH2 0x677 PUSH2 0x44D JUMP JUMPDEST SWAP1 POP PUSH2 0x683 DUP3 DUP3 PUSH2 0x63C JUMP JUMPDEST SWAP2 SWAP1 POP JUMP JUMPDEST PUSH1 0x0 PUSH8 0xFFFFFFFFFFFFFFFF DUP3 GT ISZERO PUSH2 0x6A3 JUMPI PUSH2 0x6A2 PUSH2 0x60D JUMP JUMPDEST JUMPDEST PUSH2 0x6AC DUP3 PUSH2 0x56D JUMP JUMPDEST SWAP1 POP PUSH1 0x20 DUP2 ADD SWAP1 POP SWAP2 SWAP1 POP JUMP JUMPDEST DUP3 DUP2 DUP4 CALLDATACOPY PUSH1 0x0 DUP4 DUP4 ADD MSTORE POP POP POP JUMP JUMPDEST PUSH1 0x0 PUSH2 0x6DB PUSH2 0x6D6 DUP5 PUSH2 0x688 JUMP JUMPDEST PUSH2 0x66D JUMP JUMPDEST SWAP1 POP DUP3 DUP2 MSTORE PUSH1 0x20 DUP2 ADD DUP5 DUP5 DUP5 ADD GT ISZERO PUSH2 0x6F7 JUMPI PUSH2 0x6F6 PUSH2 0x608 JUMP JUMPDEST JUMPDEST PUSH2 0x702 DUP5 DUP3 DUP6 PUSH2 0x6B9 JUMP JUMPDEST POP SWAP4 SWAP3 POP POP POP JUMP JUMPDEST PUSH1 0x0 DUP3 PUSH1 0x1F DUP4 ADD SLT PUSH2 0x71F JUMPI PUSH2 0x71E PUSH2 0x603 JUMP JUMPDEST JUMPDEST DUP2 CALLDATALOAD PUSH2 0x72F DUP5 DUP3 PUSH1 0x20 DUP7 ADD PUSH2 0x6C8 JUMP JUMPDEST SWAP2 POP POP SWAP3 SWAP2 POP POP JUMP JUMPDEST PUSH1 0x0 DUP1 PUSH1 0x40 DUP4 DUP6 SUB SLT ISZERO PUSH2 0x74F JUMPI PUSH2 0x74E PUSH2 0x457 JUMP JUMPDEST JUMPDEST PUSH1 0x0 PUSH2 0x75D DUP6 DUP3 DUP7 ADD PUSH2 0x482 JUMP JUMPDEST SWAP3 POP POP PUSH1 0x20 DUP4 ADD CALLDATALOAD PUSH8 0xFFFFFFFFFFFFFFFF DUP2 GT ISZERO PUSH2 0x77E JUMPI PUSH2 0x77D PUSH2 0x45C JUMP JUMPDEST JUMPDEST PUSH2 0x78A DUP6 DUP3 DUP7 ADD PUSH2 0x70A JUMP JUMPDEST SWAP2 POP POP SWAP3 POP SWAP3 SWAP1 POP JUMP JUMPDEST PUSH1 0x0 PUSH1 0x20 DUP3 DUP5 SUB SLT ISZERO PUSH2 0x7AA JUMPI PUSH2 0x7A9 PUSH2 0x457 JUMP JUMPDEST JUMPDEST PUSH1 0x0 PUSH2 0x7B8 DUP5 DUP3 DUP6 ADD PUSH2 0x482 JUMP JUMPDEST SWAP2 POP POP SWAP3 SWAP2 POP POP JUMP JUMPDEST PUSH1 0x0 DUP2 MLOAD SWAP1 POP SWAP2 SWAP1 POP JUMP JUMPDEST PUSH1 0x0 DUP3 DUP3 MSTORE PUSH1 0x20 DUP3 ADD SWAP1 POP SWAP3 SWAP2 POP POP JUMP JUMPDEST PUSH1 0x0 DUP2 SWAP1 POP PUSH1 0x20 DUP3 ADD SWAP1 POP SWAP2 SWAP1 POP JUMP JUMPDEST PUSH2 0x7F6 DUP2 PUSH2 0x4F7 JUMP JUMPDEST DUP3 MSTORE POP POP JUMP JUMPDEST PUSH2 0x805 DUP2 PUSH2 0x461 JUMP JUMPDEST DUP3 MSTORE POP POP JUMP JUMPDEST PUSH1 0x0 DUP3 DUP3 MSTORE PUSH1 0x20 DUP3 ADD SWAP1 POP SWAP3 SWAP2 POP POP JUMP JUMPDEST PUSH1 0x0 PUSH2 0x827 DUP3 PUSH2 0x527 JUMP JUMPDEST PUSH2 0x831 DUP2 DUP6 PUSH2 0x80B JUMP JUMPDEST SWAP4 POP PUSH2 0x841 DUP2 DUP6 PUSH1 0x20 DUP7 ADD PUSH2 0x543 JUMP JUMPDEST PUSH2 0x84A DUP2 PUSH2 0x56D JUMP JUMPDEST DUP5 ADD SWAP2 POP POP SWAP3 SWAP2 POP POP JUMP JUMPDEST PUSH1 0x0 PUSH1 0x80 DUP4 ADD PUSH1 0x0 DUP4 ADD MLOAD PUSH2 0x86D PUSH1 0x0 DUP7 ADD DUP3 PUSH2 0x7ED JUMP JUMPDEST POP PUSH1 0x20 DUP4 ADD MLOAD PUSH2 0x880 PUSH1 0x20 DUP7 ADD DUP3 PUSH2 0x7FC JUMP JUMPDEST POP PUSH1 0x40 DUP4 ADD MLOAD DUP5 DUP3 SUB PUSH1 0x40 DUP7 ADD MSTORE PUSH2 0x898 DUP3 DUP3 PUSH2 0x81C JUMP JUMPDEST SWAP2 POP POP PUSH1 0x60 DUP4 ADD MLOAD PUSH2 0x8AD PUSH1 0x60 DUP7 ADD DUP3 PUSH2 0x7FC JUMP JUMPDEST POP DUP1 SWAP2 POP POP SWAP3 SWAP2 POP POP JUMP JUMPDEST PUSH1 0x0 PUSH2 0x8C4 DUP4 DUP4 PUSH2 0x855 JUMP JUMPDEST SWAP1 POP SWAP3 SWAP2 POP POP JUMP JUMPDEST PUSH1 0x0 PUSH1 0x20 DUP3 ADD SWAP1 POP SWAP2 SWAP1 POP JUMP JUMPDEST PUSH1 0x0 PUSH2 0x8E4 DUP3 PUSH2 0x7C1 JUMP JUMPDEST PUSH2 0x8EE DUP2 DUP6 PUSH2 0x7CC JUMP JUMPDEST SWAP4 POP DUP4 PUSH1 0x20 DUP3 MUL DUP6 ADD PUSH2 0x900 DUP6 PUSH2 0x7DD JUMP JUMPDEST DUP1 PUSH1 0x0 JUMPDEST DUP6 DUP2 LT ISZERO PUSH2 0x93C JUMPI DUP5 DUP5 SUB DUP10 MSTORE DUP2 MLOAD PUSH2 0x91D DUP6 DUP3 PUSH2 0x8B8 JUMP JUMPDEST SWAP5 POP PUSH2 0x928 DUP4 PUSH2 0x8CC JUMP JUMPDEST SWAP3 POP PUSH1 0x20 DUP11 ADD SWAP10 POP POP PUSH1 0x1 DUP2 ADD SWAP1 POP PUSH2 0x904 JUMP JUMPDEST POP DUP3 SWAP8 POP DUP8 SWAP6 POP POP POP POP POP POP SWAP3 SWAP2 POP POP JUMP JUMPDEST PUSH1 0x0 PUSH1 0x20 DUP3 ADD SWAP1 POP DUP2 DUP2 SUB PUSH1 0x0 DUP4 ADD MSTORE PUSH2 0x968 DUP2 DUP5 PUSH2 0x8D9 JUMP JUMPDEST SWAP1 POP SWAP3 SWAP2 POP POP JUMP JUMPDEST PUSH32 0x4E487B7100000000000000000000000000000000000000000000000000000000 PUSH1 0x0 MSTORE PUSH1 0x22 PUSH1 0x4 MSTORE PUSH1 0x24 PUSH1 0x0 REVERT JUMPDEST PUSH1 0x0 PUSH1 0x2 DUP3 DIV SWAP1 POP PUSH1 0x1 DUP3 AND DUP1 PUSH2 0x9B7 JUMPI PUSH1 0x7F DUP3 AND SWAP2 POP JUMPDEST PUSH1 0x20 DUP3 LT DUP2 SUB PUSH2 0x9CA JUMPI PUSH2 0x9C9 PUSH2 0x970 JUMP JUMPDEST JUMPDEST POP SWAP2 SWAP1 POP JUMP JUMPDEST PUSH1 0x0 DUP2 SWAP1 POP DUP2 PUSH1 0x0 MSTORE PUSH1 0x20 PUSH1 0x0 KECCAK256 SWAP1 POP SWAP2 SWAP1 POP JUMP JUMPDEST PUSH1 0x0 PUSH1 0x20 PUSH1 0x1F DUP4 ADD DIV SWAP1 POP SWAP2 SWAP1 POP JUMP JUMPDEST PUSH1 0x0 DUP3 DUP3 SHL SWAP1 POP SWAP3 SWAP2 POP POP JUMP JUMPDEST PUSH1 0x0 PUSH1 0x8 DUP4 MUL PUSH2 0xA32 PUSH32 0xFFFFFFFFFFFFFFFFFFFFFFFFFFFFFFFFFFFFFFFFFFFFFFFFFFFFFFFFFFFFFFFF DUP3 PUSH2 0x9F5 JUMP JUMPDEST PUSH2 0xA3C DUP7 DUP4 PUSH2 0x9F5 JUMP JUMPDEST SWAP6 POP DUP1 NOT DUP5 AND SWAP4 POP DUP1 DUP7 AND DUP5 OR SWAP3 POP POP POP SWAP4 SWAP3 POP POP POP JUMP JUMPDEST PUSH1 0x0 DUP2 SWAP1 POP SWAP2 SWAP1 POP JUMP JUMPDEST PUSH1 0x0 PUSH2 0xA79 PUSH2 0xA74 PUSH2 0xA6F DUP5 PUSH2 0x461 JUMP JUMPDEST PUSH2 0xA54 JUMP JUMPDEST PUSH2 0x461 JUMP JUMPDEST SWAP1 POP SWAP2 SWAP1 POP JUMP JUMPDEST PUSH1 0x0 DUP2 SWAP1 POP SWAP2 SWAP1 POP JUMP JUMPDEST PUSH2 0xA93 DUP4 PUSH2 0xA5E JUMP JUMPDEST PUSH2 0xAA7 PUSH2 0xA9F DUP3 PUSH2 0xA80 JUMP JUMPDEST DUP5 DUP5 SLOAD PUSH2 0xA02 JUMP JUMPDEST DUP3 SSTORE POP POP POP POP JUMP JUMPDEST PUSH1 0x0 SWAP1 JUMP JUMPDEST PUSH2 0xABC PUSH2 0xAAF JUMP JUMPDEST PUSH2 0xAC7 DUP2 DUP5 DUP5 PUSH2 0xA8A JUMP JUMPDEST POP POP POP JUMP JUMPDEST JUMPDEST DUP2 DUP2 LT ISZERO PUSH2 0xAEB JUMPI PUSH2 0xAE0 PUSH1 0x0 DUP3 PUSH2 0xAB4 JUMP JUMPDEST PUSH1 0x1 DUP2 ADD SWAP1 POP PUSH2 0xACD JUMP JUMPDEST POP POP JUMP JUMPDEST PUSH1 0x1F DUP3 GT ISZERO PUSH2 0xB30 JUMPI PUSH2 0xB01 DUP2 PUSH2 0x9D0 JUMP JUMPDEST PUSH2 0xB0A DUP5 PUSH2 0x9E5 JUMP JUMPDEST DUP2 ADD PUSH1 0x20 DUP6 LT ISZERO PUSH2 0xB19 JUMPI DUP2 SWAP1 POP JUMPDEST PUSH2 0xB2D PUSH2 0xB25 DUP6 PUSH2 0x9E5 JUMP JUMPDEST DUP4 ADD DUP3 PUSH2 0xACC JUMP JUMPDEST POP POP JUMPDEST POP POP POP JUMP JUMPDEST PUSH1 0x0 DUP3 DUP3 SHR SWAP1 POP SWAP3 SWAP2 POP POP JUMP JUMPDEST PUSH1 0x0 PUSH2 0xB53 PUSH1 0x0 NOT DUP5 PUSH1 0x8 MUL PUSH2 0xB35 JUMP JUMPDEST NOT DUP1 DUP4 AND SWAP2 POP POP SWAP3 SWAP2 POP POP JUMP JUMPDEST PUSH1 0x0 PUSH2 0xB6C DUP4 DUP4 PUSH2 0xB42 JUMP JUMPDEST SWAP2 POP DUP3 PUSH1 0x2 MUL DUP3 OR SWAP1 POP SWAP3 SWAP2 POP POP JUMP JUMPDEST PUSH2 0xB85 DUP3 PUSH2 0x527 JUMP JUMPDEST PUSH8 0xFFFFFFFFFFFFFFFF DUP2 GT ISZERO PUSH2 0xB9E JUMPI PUSH2 0xB9D PUSH2 0x60D JUMP JUMPDEST JUMPDEST PUSH2 0xBA8 DUP3 SLOAD PUSH2 0x99F JUMP JUMPDEST PUSH2 0xBB3 DUP3 DUP3 DUP6 PUSH2 0xAEF JUMP JUMPDEST PUSH1 0x0 PUSH1 0x20 SWAP1 POP PUSH1 0x1F DUP4 GT PUSH1 0x1 DUP2 EQ PUSH2 0xBE6 JUMPI PUSH1 0x0 DUP5 ISZERO PUSH2 0xBD4 JUMPI DUP3 DUP8 ADD MLOAD SWAP1 POP JUMPDEST PUSH2 0xBDE DUP6 DUP3 PUSH2 0xB60 JUMP JUMPDEST DUP7 SSTORE POP PUSH2 0xC46 JUMP JUMPDEST PUSH1 0x1F NOT DUP5 AND PUSH2 0xBF4 DUP7 PUSH2 0x9D0 JUMP JUMPDEST PUSH1 0x0 JUMPDEST DUP3 DUP2 LT ISZERO PUSH2 0xC1C JUMPI DUP5 DUP10 ADD MLOAD DUP3 SSTORE PUSH1 0x1 DUP3 ADD SWAP2 POP PUSH1 0x20 DUP6 ADD SWAP5 POP PUSH1 0x20 DUP2 ADD SWAP1 POP PUSH2 0xBF7 JUMP JUMPDEST DUP7 DUP4 LT ISZERO PUSH2 0xC39 JUMPI DUP5 DUP10 ADD MLOAD PUSH2 0xC35 PUSH1 0x1F DUP10 AND DUP3 PUSH2 0xB42 JUMP JUMPDEST DUP4 SSTORE POP JUMPDEST PUSH1 0x1 PUSH1 0x2 DUP9 MUL ADD DUP9 SSTORE POP POP POP JUMPDEST POP POP POP POP POP POP JUMP INVALID LOG2 PUSH5 0x6970667358 0x22 SLT KECCAK256 CREATE2 0x49 PUSH19 0xA7447D700486E48F6E90B5C137E17F428E3BF4 CREATE SWAP7 CODECOPY SWAP8 0xCB RETURNDATASIZE SWAP15 GT COINBASE PUSH7 0x64736F6C634300 ADDMOD SGT STOP CALLER "},"methodIdentifiers":{"acceptLicense(uint256,string)":"5079b61a","getDownloadsByProject(uint256)":"53e538f1","licenseRecords(uint256,uint256)":"3e28bb5d"}}}}}