{
  "_format": "hh-sol-artifact-1",
  "contractName": "LicenseManager",
  "sourceName": "contracts/SilenceManager.sol",
  "abi": [
    {
      "anonymous": false,
      "inputs": [
        {
          "indexed": false,
          "internalType": "address",
          "name": "downloader",
          "type": "address"
        },
        {
          "indexed": false,
          "internalType": "uint256",
          "name": "originalProjectId",
          "type": "uint256"
        },
        {
          "indexed": false,
          "internalType": "string",
          "name": "licenseType",
          "type": "string"
        },
        {
          "indexed": false,
          "internalType": "uint256",
          "name": "timestamp",
          "type": "uint256"
        }
      ],
      "name": "LicenseAccepted",
      "type": "event"
    },
    {
      "anonymous": false,
      "inputs": [
        {
          "indexed": false,
          "internalType": "address",
          "name": "uploader",
          "type": "address"
        },
        {
          "indexed": false,
          "internalType": "uint256",
          "name": "projectId",
          "type": "uint256"
        },
        {
          "indexed": false,
          "internalType": "uint256",
          "name": "parentProjectId",
          "type": "uint256"
        },
        {
          "indexed": false,
          "internalType": "string",
          "name": "licenseType",
          "type": "string"
        },
        {
          "indexed": false,
          "internalType": "bool",
          "name": "flagged",
          "type": "bool"
        },
        {
          "indexed": false,
          "internalType": "string[]",
          "name": "functionHashes",
          "type": "string[]"
        }
      ],
      "name": "ProjectUploaded",
      "type": "event"
    },
    {
      "inputs": [
        {
          "internalType": "uint256",
          "name": "originalProjectId",
          "type": "uint256"
        },
        {
          "internalType": "string",
          "name": "licenseType",
          "type": "string"
        }
      ],
      "name": "acceptLicense",
      "outputs": [],
      "stateMutability": "nonpayable",
      "type": "function"
    },
    {
      "inputs": [
        {
          "internalType": "uint256",
          "name": "projectId",
          "type": "uint256"
        }
      ],
      "name": "getProjectDetails",
      "outputs": [
        {
          "internalType": "string",
          "name": "licenseType",
          "type": "string"
        }
      ],
      "stateMutability": "view",
      "type": "function"
    },
    {
      "inputs": [
        {
          "internalType": "uint256",
          "name": "projectId",
          "type": "uint256"
        }
      ],
      "name": "getProjectHashes",
      "outputs": [
        {
          "internalType": "string[]",
          "name": "",
          "type": "string[]"
        }
      ],
      "stateMutability": "view",
      "type": "function"
    },
    {
      "inputs": [
        {
          "internalType": "uint256",
          "name": "projectId",
          "type": "uint256"
        }
      ],
      "name": "isProjectFlagged",
      "outputs": [
        {
          "internalType": "bool",
          "name": "",
          "type": "bool"
        }
      ],
      "stateMutability": "view",
      "type": "function"
    },
    {
      "inputs": [
        {
          "internalType": "uint256",
          "name": "",
          "type": "uint256"
        },
        {
          "internalType": "uint256",
          "name": "",
          "type": "uint256"
        }
      ],
      "name": "licenseRecords",
      "outputs": [
        {
          "internalType": "address",
          "name": "downloader",
          "type": "address"
        },
        {
          "internalType": "uint256",
          "name": "originalProjectId",
          "type": "uint256"
        },
        {
          "internalType": "string",
          "name": "licenseType",
          "type": "string"
        },
        {
          "internalType": "uint256",
          "name": "timestamp",
          "type": "uint256"
        }
      ],
      "stateMutability": "view",
      "type": "function"
    },
    {
      "inputs": [
        {
          "internalType": "uint256",
          "name": "",
          "type": "uint256"
        },
        {
          "internalType": "uint256",
          "name": "",
          "type": "uint256"
        }
      ],
      "name": "projectFunctionHashes",
      "outputs": [
        {
          "internalType": "string",
          "name": "",
          "type": "string"
        }
      ],
      "stateMutability": "view",
      "type": "function"
    },
    {
      "inputs": [
        {
          "internalType": "uint256",
          "name": "projectId",
          "type": "uint256"
        },
        {
          "internalType": "uint256",
          "name": "parentProjectId",
          "type": "uint256"
        },
        {
          "internalType": "string",
          "name": "licenseType",
          "type": "string"
        },
        {
          "internalType": "string[]",
          "name": "functionHashes",
          "type": "string[]"
        }
      ],
      "name": "uploadProject",
      "outputs": [],
      "stateMutability": "nonpayable",
      "type": "function"
    },
    {
      "inputs": [
        {
          "internalType": "uint256",
          "name": "",
          "type": "uint256"
        }
      ],
      "name": "uploadedProjects",
      "outputs": [
        {
          "internalType": "address",
          "name": "uploader",
          "type": "address"
        },
        {
          "internalType": "uint256",
          "name": "projectId",
          "type": "uint256"
        },
        {
          "internalType": "uint256",
          "name": "parentProjectId",
          "type": "uint256"
        },
        {
          "internalType": "string",
          "name": "licenseType",
          "type": "string"
        },
        {
          "internalType": "bool",
          "name": "flagged",
          "type": "bool"
        }
      ],
      "stateMutability": "view",
      "type": "function"
    }
  ],
  "bytecode": "0x608060405234801561001057600080fd5b5061181b806100206000396000f3fe608060405234801561001057600080fd5b50600436106100885760003560e01c806395c7073a1161005b57806395c7073a14610140578063b815a0a21461015c578063d797e8a81461018c578063ef551499146101bc57610088565b80633e28bb5d1461008d5780635079b61a146100c05780635f8439e3146100dc5780636cd2db031461010c575b600080fd5b6100a760048036038101906100a29190610ca4565b6101ec565b6040516100b79493929190610dc4565b60405180910390f35b6100da60048036038101906100d59190610f45565b6102e1565b005b6100f660048036038101906100f19190610fa1565b610407565b6040516101039190610fce565b60405180910390f35b61012660048036038101906101219190610fa1565b610554565b60405161013795949392919061100b565b60405180910390f35b61015a6004803603810190610155919061114b565b61063f565b005b61017660048036038101906101719190610fa1565b6109ae565b60405161018391906111ea565b60405180910390f35b6101a660048036038101906101a19190610ca4565b6109db565b6040516101b39190610fce565b60405180910390f35b6101d660048036038101906101d19190610fa1565b610a94565b6040516101e39190611311565b60405180910390f35b6000602052816000526040600020818154811061020857600080fd5b9060005260206000209060040201600091509150508060000160009054906101000a900473ffffffffffffffffffffffffffffffffffffffff169080600101549080600201805461025890611362565b80601f016020809104026020016040519081016040528092919081815260200182805461028490611362565b80156102d15780601f106102a6576101008083540402835291602001916102d1565b820191906000526020600020905b8154815290600101906020018083116102b457829003601f168201915b5050505050908060030154905084565b60008083815260200190815260200160002060405180608001604052803373ffffffffffffffffffffffffffffffffffffffff16815260200184815260200183815260200142815250908060018154018082558091505060019003906000526020600020906004020160009091909190915060008201518160000160006101000a81548173ffffffffffffffffffffffffffffffffffffffff021916908373ffffffffffffffffffffffffffffffffffffffff1602179055506020820151816001015560408201518160020190816103b9919061153f565b506060820151816003015550507fb31ebd9b6c09f3b0b779e965936f97c32576bb4e78b66fa189e0d0ba4ff046cf338383426040516103fb9493929190610dc4565b60405180910390a15050565b6060600073ffffffffffffffffffffffffffffffffffffffff166001600084815260200190815260200160002060000160009054906101000a900473ffffffffffffffffffffffffffffffffffffffff1673ffffffffffffffffffffffffffffffffffffffff16036104ae576040517f08c379a00000000000000000000000000000000000000000000000000000000081526004016104a59061165d565b60405180910390fd5b6001600083815260200190815260200160002060030180546104cf90611362565b80601f01602080910402602001604051908101604052809291908181526020018280546104fb90611362565b80156105485780601f1061051d57610100808354040283529160200191610548565b820191906000526020600020905b81548152906001019060200180831161052b57829003601f168201915b50505050509050919050565b60016020528060005260406000206000915090508060000160009054906101000a900473ffffffffffffffffffffffffffffffffffffffff16908060010154908060020154908060030180546105a990611362565b80601f01602080910402602001604051908101604052809291908181526020018280546105d590611362565b80156106225780601f106105f757610100808354040283529160200191610622565b820191906000526020600020905b81548152906001019060200180831161060557829003601f168201915b5050505050908060040160009054906101000a900460ff16905085565b600080841461085857600080806000878152602001908152602001600020805480602002602001604051908101604052809291908181526020016000905b828210156107ab57838290600052602060002090600402016040518060800160405290816000820160009054906101000a900473ffffffffffffffffffffffffffffffffffffffff1673ffffffffffffffffffffffffffffffffffffffff1673ffffffffffffffffffffffffffffffffffffffff1681526020016001820154815260200160028201805461071090611362565b80601f016020809104026020016040519081016040528092919081815260200182805461073c90611362565b80156107895780601f1061075e57610100808354040283529160200191610789565b820191906000526020600020905b81548152906001019060200180831161076c57829003601f168201915b505050505081526020016003820154815250508152602001906001019061067d565b50505050905060005b815181101561084a57856040516020016107ce91906116b9565b604051602081830303815290604052805190602001208282815181106107f7576107f66116d0565b5b60200260200101516040015160405160200161081391906116b9565b6040516020818303038152906040528051906020012003610837576001925061084a565b80806108429061172e565b9150506107b4565b508161085557600192505b50505b6040518060a001604052803373ffffffffffffffffffffffffffffffffffffffff1681526020018681526020018581526020018481526020018215158152506001600087815260200190815260200160002060008201518160000160006101000a81548173ffffffffffffffffffffffffffffffffffffffff021916908373ffffffffffffffffffffffffffffffffffffffff1602179055506020820151816001015560408201518160020155606082015181600301908161091a919061153f565b5060808201518160040160006101000a81548160ff02191690831515021790555090505081600260008781526020019081526020016000209080519060200190610965929190610b80565b507fa15f7a8835778294fca7ccb9f4dcbe362174933624c74d9794ef317dc469e4f833868686858760405161099f96959493929190611776565b60405180910390a15050505050565b60006001600083815260200190815260200160002060040160009054906101000a900460ff169050919050565b600260205281600052604060002081815481106109f757600080fd5b90600052602060002001600091509150508054610a1390611362565b80601f0160208091040260200160405190810160405280929190818152602001828054610a3f90611362565b8015610a8c5780601f10610a6157610100808354040283529160200191610a8c565b820191906000526020600020905b815481529060010190602001808311610a6f57829003601f168201915b505050505081565b606060026000838152602001908152602001600020805480602002602001604051908101604052809291908181526020016000905b82821015610b75578382906000526020600020018054610ae890611362565b80601f0160208091040260200160405190810160405280929190818152602001828054610b1490611362565b8015610b615780601f10610b3657610100808354040283529160200191610b61565b820191906000526020600020905b815481529060010190602001808311610b4457829003601f168201915b505050505081526020019060010190610ac9565b505050509050919050565b828054828255906000526020600020908101928215610bc8579160200282015b82811115610bc7578251829081610bb7919061153f565b5091602001919060010190610ba0565b5b509050610bd59190610bd9565b5090565b5b80821115610bf95760008181610bf09190610bfd565b50600101610bda565b5090565b508054610c0990611362565b6000825580601f10610c1b5750610c3a565b601f016020900490600052602060002090810190610c399190610c3d565b5b50565b5b80821115610c56576000816000905550600101610c3e565b5090565b6000604051905090565b600080fd5b600080fd5b6000819050919050565b610c8181610c6e565b8114610c8c57600080fd5b50565b600081359050610c9e81610c78565b92915050565b60008060408385031215610cbb57610cba610c64565b5b6000610cc985828601610c8f565b9250506020610cda85828601610c8f565b9150509250929050565b600073ffffffffffffffffffffffffffffffffffffffff82169050919050565b6000610d0f82610ce4565b9050919050565b610d1f81610d04565b82525050565b610d2e81610c6e565b82525050565b600081519050919050565b600082825260208201905092915050565b60005b83811015610d6e578082015181840152602081019050610d53565b60008484015250505050565b6000601f19601f8301169050919050565b6000610d9682610d34565b610da08185610d3f565b9350610db0818560208601610d50565b610db981610d7a565b840191505092915050565b6000608082019050610dd96000830187610d16565b610de66020830186610d25565b8181036040830152610df88185610d8b565b9050610e076060830184610d25565b95945050505050565b600080fd5b600080fd5b7f4e487b7100000000000000000000000000000000000000000000000000000000600052604160045260246000fd5b610e5282610d7a565b810181811067ffffffffffffffff82111715610e7157610e70610e1a565b5b80604052505050565b6000610e84610c5a565b9050610e908282610e49565b919050565b600067ffffffffffffffff821115610eb057610eaf610e1a565b5b610eb982610d7a565b9050602081019050919050565b82818337600083830152505050565b6000610ee8610ee384610e95565b610e7a565b905082815260208101848484011115610f0457610f03610e15565b5b610f0f848285610ec6565b509392505050565b600082601f830112610f2c57610f2b610e10565b5b8135610f3c848260208601610ed5565b91505092915050565b60008060408385031215610f5c57610f5b610c64565b5b6000610f6a85828601610c8f565b925050602083013567ffffffffffffffff811115610f8b57610f8a610c69565b5b610f9785828601610f17565b9150509250929050565b600060208284031215610fb757610fb6610c64565b5b6000610fc584828501610c8f565b91505092915050565b60006020820190508181036000830152610fe88184610d8b565b905092915050565b60008115159050919050565b61100581610ff0565b82525050565b600060a0820190506110206000830188610d16565b61102d6020830187610d25565b61103a6040830186610d25565b818103606083015261104c8185610d8b565b905061105b6080830184610ffc565b9695505050505050565b600067ffffffffffffffff8211156110805761107f610e1a565b5b602082029050602081019050919050565b600080fd5b60006110a96110a484611065565b610e7a565b905080838252602082019050602084028301858111156110cc576110cb611091565b5b835b8181101561111357803567ffffffffffffffff8111156110f1576110f0610e10565b5b8086016110fe8982610f17565b855260208501945050506020810190506110ce565b5050509392505050565b600082601f83011261113257611131610e10565b5b8135611142848260208601611096565b91505092915050565b6000806000806080858703121561116557611164610c64565b5b600061117387828801610c8f565b945050602061118487828801610c8f565b935050604085013567ffffffffffffffff8111156111a5576111a4610c69565b5b6111b187828801610f17565b925050606085013567ffffffffffffffff8111156111d2576111d1610c69565b5b6111de8782880161111d565b91505092959194509250565b60006020820190506111ff6000830184610ffc565b92915050565b600081519050919050565b600082825260208201905092915050565b6000819050602082019050919050565b600082825260208201905092915050565b600061124d82610d34565b6112578185611231565b9350611267818560208601610d50565b61127081610d7a565b840191505092915050565b60006112878383611242565b905092915050565b6000602082019050919050565b60006112a782611205565b6112b18185611210565b9350836020820285016112c385611221565b8060005b858110156112ff57848403895281516112e0858261127b565b94506112eb8361128f565b925060208a019950506001810190506112c7565b50829750879550505050505092915050565b6000602082019050818103600083015261132b818461129c565b905092915050565b7f4e487b7100000000000000000000000000000000000000000000000000000000600052602260045260246000fd5b6000600282049050600182168061137a57607f821691505b60208210810361138d5761138c611333565b5b50919050565b60008190508160005260206000209050919050565b60006020601f8301049050919050565b600082821b905092915050565b6000600883026113f57fffffffffffffffffffffffffffffffffffffffffffffffffffffffffffffffff826113b8565b6113ff86836113b8565b95508019841693508086168417925050509392505050565b6000819050919050565b600061143c61143761143284610c6e565b611417565b610c6e565b9050919050565b6000819050919050565b61145683611421565b61146a61146282611443565b8484546113c5565b825550505050565b600090565b61147f611472565b61148a81848461144d565b505050565b5b818110156114ae576114a3600082611477565b600181019050611490565b5050565b601f8211156114f3576114c481611393565b6114cd846113a8565b810160208510156114dc578190505b6114f06114e8856113a8565b83018261148f565b50505b505050565b600082821c905092915050565b6000611516600019846008026114f8565b1980831691505092915050565b600061152f8383611505565b9150826002028217905092915050565b61154882610d34565b67ffffffffffffffff81111561156157611560610e1a565b5b61156b8254611362565b6115768282856114b2565b600060209050601f8311600181146115a95760008415611597578287015190505b6115a18582611523565b865550611609565b601f1984166115b786611393565b60005b828110156115df578489015182556001820191506020850194506020810190506115ba565b868310156115fc57848901516115f8601f891682611505565b8355505b6001600288020188555050505b505050505050565b7f50726f6a65637420646f6573206e6f7420657869737400000000000000000000600082015250565b6000611647601683610d3f565b915061165282611611565b602082019050919050565b600060208201905081810360008301526116768161163a565b9050919050565b600081905092915050565b600061169382610d34565b61169d818561167d565b93506116ad818560208601610d50565b80840191505092915050565b60006116c58284611688565b915081905092915050565b7f4e487b7100000000000000000000000000000000000000000000000000000000600052603260045260246000fd5b7f4e487b7100000000000000000000000000000000000000000000000000000000600052601160045260246000fd5b600061173982610c6e565b91507fffffffffffffffffffffffffffffffffffffffffffffffffffffffffffffffff820361176b5761176a6116ff565b5b600182019050919050565b600060c08201905061178b6000830189610d16565b6117986020830188610d25565b6117a56040830187610d25565b81810360608301526117b78186610d8b565b90506117c66080830185610ffc565b81810360a08301526117d8818461129c565b905097965050505050505056fea2646970667358221220d26b1779b0e5e2924b26504ad0dd5b8cb0b58a6a27e9c6f3cd9d689bc00b288b64736f6c63430008130033",
  "linkReferences": {},
  "deployedLinkReferences": {}
}