{
  "_format": "hh-sol-artifact-1",
  "contractName": "DownloadAgreement",
  "sourceName": "contracts/DownloadAgreement.sol",
  "abi": [
    {
      "anonymous": false,
      "inputs": [
        {
          "indexed": false,
          "internalType": "address",
          "name": "downloader",
          "type": "address"
        },
        {
          "indexed": false,
          "internalType": "uint256",
          "name": "originalProjectId",
          "type": "uint256"
        },
        {
          "indexed": false,
          "internalType": "string",
          "name": "licenseType",
          "type": "string"
        },
        {
          "indexed": false,
          "internalType": "uint256",
          "name": "timestamp",
          "type": "uint256"
        }
      ],
      "name": "LicenseAccepted",
      "type": "event"
    },
    {
      "inputs": [
        {
          "internalType": "uint256",
          "name": "originalProjectId",
          "type": "uint256"
        },
        {
          "internalType": "string",
          "name": "licenseType",
          "type": "string"
        }
      ],
      "name": "acceptLicense",
      "outputs": [],
      "stateMutability": "nonpayable",
      "type": "function"
    },
    {
      "inputs": [
        {
          "internalType": "uint256",
          "name": "projectId",
          "type": "uint256"
        }
      ],
      "name": "getDownloadsByProject",
      "outputs": [
        {
          "components": [
            {
              "internalType": "address",
              "name": "downloader",
              "type": "address"
            },
            {
              "internalType": "uint256",
              "name": "originalProjectId",
              "type": "uint256"
            },
            {
              "internalType": "string",
              "name": "licenseType",
              "type": "string"
            },
            {
              "internalType": "uint256",
              "name": "timestamp",
              "type": "uint256"
            }
          ],
          "internalType": "struct DownloadAgreement.LicenseAgreement[]",
          "name": "",
          "type": "tuple[]"
        }
      ],
      "stateMutability": "view",
      "type": "function"
    },
    {
      "inputs": [
        {
          "internalType": "uint256",
          "name": "",
          "type": "uint256"
        },
        {
          "internalType": "uint256",
          "name": "",
          "type": "uint256"
        }
      ],
      "name": "licenseRecords",
      "outputs": [
        {
          "internalType": "address",
          "name": "downloader",
          "type": "address"
        },
        {
          "internalType": "uint256",
          "name": "originalProjectId",
          "type": "uint256"
        },
        {
          "internalType": "string",
          "name": "licenseType",
          "type": "string"
        },
        {
          "internalType": "uint256",
          "name": "timestamp",
          "type": "uint256"
        }
      ],
      "stateMutability": "view",
      "type": "function"
    }
  ],
  "bytecode": "0x608060405234801561001057600080fd5b50610c84806100206000396000f3fe608060405234801561001057600080fd5b50600436106100415760003560e01c80633e28bb5d146100465780635079b61a1461007957806353e538f114610095575b600080fd5b610060600480360381019061005b9190610497565b6100c5565b60405161007094939291906105b7565b60405180910390f35b610093600480360381019061008e9190610738565b6101ba565b005b6100af60048036038101906100aa9190610794565b6102e0565b6040516100bc919061094e565b60405180910390f35b600060205281600052604060002081815481106100e157600080fd5b9060005260206000209060040201600091509150508060000160009054906101000a900473ffffffffffffffffffffffffffffffffffffffff16908060010154908060020180546101319061099f565b80601f016020809104026020016040519081016040528092919081815260200182805461015d9061099f565b80156101aa5780601f1061017f576101008083540402835291602001916101aa565b820191906000526020600020905b81548152906001019060200180831161018d57829003601f168201915b5050505050908060030154905084565b60008083815260200190815260200160002060405180608001604052803373ffffffffffffffffffffffffffffffffffffffff16815260200184815260200183815260200142815250908060018154018082558091505060019003906000526020600020906004020160009091909190915060008201518160000160006101000a81548173ffffffffffffffffffffffffffffffffffffffff021916908373ffffffffffffffffffffffffffffffffffffffff1602179055506020820151816001015560408201518160020190816102929190610b7c565b506060820151816003015550507fb31ebd9b6c09f3b0b779e965936f97c32576bb4e78b66fa189e0d0ba4ff046cf338383426040516102d494939291906105b7565b60405180910390a15050565b6060600080838152602001908152602001600020805480602002602001604051908101604052809291908181526020016000905b8282101561044257838290600052602060002090600402016040518060800160405290816000820160009054906101000a900473ffffffffffffffffffffffffffffffffffffffff1673ffffffffffffffffffffffffffffffffffffffff1673ffffffffffffffffffffffffffffffffffffffff168152602001600182015481526020016002820180546103a79061099f565b80601f01602080910402602001604051908101604052809291908181526020018280546103d39061099f565b80156104205780601f106103f557610100808354040283529160200191610420565b820191906000526020600020905b81548152906001019060200180831161040357829003601f168201915b5050505050815260200160038201548152505081526020019060010190610314565b505050509050919050565b6000604051905090565b600080fd5b600080fd5b6000819050919050565b61047481610461565b811461047f57600080fd5b50565b6000813590506104918161046b565b92915050565b600080604083850312156104ae576104ad610457565b5b60006104bc85828601610482565b92505060206104cd85828601610482565b9150509250929050565b600073ffffffffffffffffffffffffffffffffffffffff82169050919050565b6000610502826104d7565b9050919050565b610512816104f7565b82525050565b61052181610461565b82525050565b600081519050919050565b600082825260208201905092915050565b60005b83811015610561578082015181840152602081019050610546565b60008484015250505050565b6000601f19601f8301169050919050565b600061058982610527565b6105938185610532565b93506105a3818560208601610543565b6105ac8161056d565b840191505092915050565b60006080820190506105cc6000830187610509565b6105d96020830186610518565b81810360408301526105eb818561057e565b90506105fa6060830184610518565b95945050505050565b600080fd5b600080fd5b7f4e487b7100000000000000000000000000000000000000000000000000000000600052604160045260246000fd5b6106458261056d565b810181811067ffffffffffffffff821117156106645761066361060d565b5b80604052505050565b600061067761044d565b9050610683828261063c565b919050565b600067ffffffffffffffff8211156106a3576106a261060d565b5b6106ac8261056d565b9050602081019050919050565b82818337600083830152505050565b60006106db6106d684610688565b61066d565b9050828152602081018484840111156106f7576106f6610608565b5b6107028482856106b9565b509392505050565b600082601f83011261071f5761071e610603565b5b813561072f8482602086016106c8565b91505092915050565b6000806040838503121561074f5761074e610457565b5b600061075d85828601610482565b925050602083013567ffffffffffffffff81111561077e5761077d61045c565b5b61078a8582860161070a565b9150509250929050565b6000602082840312156107aa576107a9610457565b5b60006107b884828501610482565b91505092915050565b600081519050919050565b600082825260208201905092915050565b6000819050602082019050919050565b6107f6816104f7565b82525050565b61080581610461565b82525050565b600082825260208201905092915050565b600061082782610527565b610831818561080b565b9350610841818560208601610543565b61084a8161056d565b840191505092915050565b600060808301600083015161086d60008601826107ed565b50602083015161088060208601826107fc565b5060408301518482036040860152610898828261081c565b91505060608301516108ad60608601826107fc565b508091505092915050565b60006108c48383610855565b905092915050565b6000602082019050919050565b60006108e4826107c1565b6108ee81856107cc565b935083602082028501610900856107dd565b8060005b8581101561093c578484038952815161091d85826108b8565b9450610928836108cc565b925060208a01995050600181019050610904565b50829750879550505050505092915050565b6000602082019050818103600083015261096881846108d9565b905092915050565b7f4e487b7100000000000000000000000000000000000000000000000000000000600052602260045260246000fd5b600060028204905060018216806109b757607f821691505b6020821081036109ca576109c9610970565b5b50919050565b60008190508160005260206000209050919050565b60006020601f8301049050919050565b600082821b905092915050565b600060088302610a327fffffffffffffffffffffffffffffffffffffffffffffffffffffffffffffffff826109f5565b610a3c86836109f5565b95508019841693508086168417925050509392505050565b6000819050919050565b6000610a79610a74610a6f84610461565b610a54565b610461565b9050919050565b6000819050919050565b610a9383610a5e565b610aa7610a9f82610a80565b848454610a02565b825550505050565b600090565b610abc610aaf565b610ac7818484610a8a565b505050565b5b81811015610aeb57610ae0600082610ab4565b600181019050610acd565b5050565b601f821115610b3057610b01816109d0565b610b0a846109e5565b81016020851015610b19578190505b610b2d610b25856109e5565b830182610acc565b50505b505050565b600082821c905092915050565b6000610b5360001984600802610b35565b1980831691505092915050565b6000610b6c8383610b42565b9150826002028217905092915050565b610b8582610527565b67ffffffffffffffff811115610b9e57610b9d61060d565b5b610ba8825461099f565b610bb3828285610aef565b600060209050601f831160018114610be65760008415610bd4578287015190505b610bde8582610b60565b865550610c46565b601f198416610bf4866109d0565b60005b82811015610c1c57848901518255600182019150602085019450602081019050610bf7565b86831015610c395784890151610c35601f891682610b42565b8355505b6001600288020188555050505b50505050505056fea2646970667358221220f54972a7447d700486e48f6e90b5c137e17f428e3bf4f0963997cb3d9e11416664736f6c63430008130033",
  "linkReferences": {},
  "deployedLinkReferences": {}
}